:020000040000FA
:020000000528D1
:040002000034003492
:02000800D028FE
:06000A00831603178901B3
:10001000831603178801831603130030850003300D
:1000200086008312031385018601831603130130B2
:1000300081008316031301309500F2018316031328
:100040001930990083160313243098008312031388
:1000500090309800831203130C12F7203030A02048
:100060003830A0200830A0200130A0200330A0208C
:100070000C30A0208030A0202030A6202030A620E8
:100080002030A6202030A6204430A6206930A620AB
:100090007330A6207430A6206130A6206E30A620D2
:1000A0006330A6206930A6206130A62006185628A5
:1000B00059280E21061509210611861C5D28831278
:1000C0000313F9308100A0308B00861865288B015E
:1000D00002307202031C7128C8307202031C8B2884
:1000E0007128C030A0202030A6202030A62020304B
:1000F000A6202030A6202030A6202030A620453083
:10010000A6205230A6205230A6204F30A6205230D2
:10011000A620E5201729C030A0202030A6202030BE
:10012000A6202030A6202030A6202030A620AC20FB
:100130002030A6206330A6206D30A620F02017299D
:100140008500861386160021861208008500861712
:100150008616002186120800B7207908B4207A0894
:10016000B4207B08B4200800303EA6200800F90126
:10017000FA01FB01F208831CBE2808000A30720253
:100180000318C628C3287208FB0008000A30F202D0
:10019000FA0A0A307A02031DBE28FA01F90ABE28BB
:1001A000F100030EF0000130F2070B11F93081006D
:1001B000700E8300F10E710E090083160313981C54
:1001C000DF2883120313990008004530DD205230E8
:1001D000DD205230DD204F30DD205230DD200800A0
:1001E0007908DD207A08DD207B08DD200800373023
:1001F000F600E530F500F50BFB28F60BF9280800B2
:100200000B30F6001930F500F50B0429F60B022926
:10021000080005308400840B0B2908008230F300AD
:10022000FF30F400F40B1229F30B102908001729F2
:02400E00E423A9
:02401000FF3F70
:00000001FF
